{
  "_format": "hh-sol-artifact-1",
  "contractName": "DynamicSvgNft",
  "sourceName": "contracts/DynamicDvgNft.sol",
  "abi": [
    {
      "inputs": [
        {
          "internalType": "address",
          "name": "priceFeedAddress",
          "type": "address"
        },
        {
          "internalType": "string",
          "name": "lowSvg",
          "type": "string"
        },
        {
          "internalType": "string",
          "name": "highSvg",
          "type": "string"
        }
      ],
      "stateMutability": "nonpayable",
      "type": "constructor"
    },
    {
      "inputs": [],
      "name": "ERC721Metadata__URI_QueryFor_NonExistentToken",
      "type": "error"
    },
    {
      "anonymous": false,
      "inputs": [
        {
          "indexed": true,
          "internalType": "address",
          "name": "owner",
          "type": "address"
        },
        {
          "indexed": true,
          "internalType": "address",
          "name": "approved",
          "type": "address"
        },
        {
          "indexed": true,
          "internalType": "uint256",
          "name": "tokenId",
          "type": "uint256"
        }
      ],
      "name": "Approval",
      "type": "event"
    },
    {
      "anonymous": false,
      "inputs": [
        {
          "indexed": true,
          "internalType": "address",
          "name": "owner",
          "type": "address"
        },
        {
          "indexed": true,
          "internalType": "address",
          "name": "operator",
          "type": "address"
        },
        {
          "indexed": false,
          "internalType": "bool",
          "name": "approved",
          "type": "bool"
        }
      ],
      "name": "ApprovalForAll",
      "type": "event"
    },
    {
      "anonymous": false,
      "inputs": [
        {
          "indexed": true,
          "internalType": "uint256",
          "name": "tokenId",
          "type": "uint256"
        },
        {
          "indexed": false,
          "internalType": "int256",
          "name": "highValue",
          "type": "int256"
        }
      ],
      "name": "CreatedNFT",
      "type": "event"
    },
    {
      "anonymous": false,
      "inputs": [
        {
          "indexed": true,
          "internalType": "address",
          "name": "previousOwner",
          "type": "address"
        },
        {
          "indexed": true,
          "internalType": "address",
          "name": "newOwner",
          "type": "address"
        }
      ],
      "name": "OwnershipTransferred",
      "type": "event"
    },
    {
      "anonymous": false,
      "inputs": [
        {
          "indexed": true,
          "internalType": "address",
          "name": "from",
          "type": "address"
        },
        {
          "indexed": true,
          "internalType": "address",
          "name": "to",
          "type": "address"
        },
        {
          "indexed": true,
          "internalType": "uint256",
          "name": "tokenId",
          "type": "uint256"
        }
      ],
      "name": "Transfer",
      "type": "event"
    },
    {
      "inputs": [
        {
          "internalType": "address",
          "name": "to",
          "type": "address"
        },
        {
          "internalType": "uint256",
          "name": "tokenId",
          "type": "uint256"
        }
      ],
      "name": "approve",
      "outputs": [],
      "stateMutability": "nonpayable",
      "type": "function"
    },
    {
      "inputs": [
        {
          "internalType": "address",
          "name": "owner",
          "type": "address"
        }
      ],
      "name": "balanceOf",
      "outputs": [
        {
          "internalType": "uint256",
          "name": "",
          "type": "uint256"
        }
      ],
      "stateMutability": "view",
      "type": "function"
    },
    {
      "inputs": [
        {
          "internalType": "uint256",
          "name": "tokenId",
          "type": "uint256"
        }
      ],
      "name": "getApproved",
      "outputs": [
        {
          "internalType": "address",
          "name": "",
          "type": "address"
        }
      ],
      "stateMutability": "view",
      "type": "function"
    },
    {
      "inputs": [],
      "name": "getHighSVG",
      "outputs": [
        {
          "internalType": "string",
          "name": "",
          "type": "string"
        }
      ],
      "stateMutability": "view",
      "type": "function"
    },
    {
      "inputs": [],
      "name": "getLowSVG",
      "outputs": [
        {
          "internalType": "string",
          "name": "",
          "type": "string"
        }
      ],
      "stateMutability": "view",
      "type": "function"
    },
    {
      "inputs": [],
      "name": "getPriceFeed",
      "outputs": [
        {
          "internalType": "contract AggregatorV3Interface",
          "name": "",
          "type": "address"
        }
      ],
      "stateMutability": "view",
      "type": "function"
    },
    {
      "inputs": [],
      "name": "getTokenCounter",
      "outputs": [
        {
          "internalType": "uint256",
          "name": "",
          "type": "uint256"
        }
      ],
      "stateMutability": "view",
      "type": "function"
    },
    {
      "inputs": [
        {
          "internalType": "address",
          "name": "owner",
          "type": "address"
        },
        {
          "internalType": "address",
          "name": "operator",
          "type": "address"
        }
      ],
      "name": "isApprovedForAll",
      "outputs": [
        {
          "internalType": "bool",
          "name": "",
          "type": "bool"
        }
      ],
      "stateMutability": "view",
      "type": "function"
    },
    {
      "inputs": [
        {
          "internalType": "int256",
          "name": "highValue",
          "type": "int256"
        }
      ],
      "name": "mintNft",
      "outputs": [],
      "stateMutability": "nonpayable",
      "type": "function"
    },
    {
      "inputs": [],
      "name": "name",
      "outputs": [
        {
          "internalType": "string",
          "name": "",
          "type": "string"
        }
      ],
      "stateMutability": "view",
      "type": "function"
    },
    {
      "inputs": [],
      "name": "owner",
      "outputs": [
        {
          "internalType": "address",
          "name": "",
          "type": "address"
        }
      ],
      "stateMutability": "view",
      "type": "function"
    },
    {
      "inputs": [
        {
          "internalType": "uint256",
          "name": "tokenId",
          "type": "uint256"
        }
      ],
      "name": "ownerOf",
      "outputs": [
        {
          "internalType": "address",
          "name": "",
          "type": "address"
        }
      ],
      "stateMutability": "view",
      "type": "function"
    },
    {
      "inputs": [],
      "name": "renounceOwnership",
      "outputs": [],
      "stateMutability": "nonpayable",
      "type": "function"
    },
    {
      "inputs": [
        {
          "internalType": "address",
          "name": "from",
          "type": "address"
        },
        {
          "internalType": "address",
          "name": "to",
          "type": "address"
        },
        {
          "internalType": "uint256",
          "name": "tokenId",
          "type": "uint256"
        }
      ],
      "name": "safeTransferFrom",
      "outputs": [],
      "stateMutability": "nonpayable",
      "type": "function"
    },
    {
      "inputs": [
        {
          "internalType": "address",
          "name": "from",
          "type": "address"
        },
        {
          "internalType": "address",
          "name": "to",
          "type": "address"
        },
        {
          "internalType": "uint256",
          "name": "tokenId",
          "type": "uint256"
        },
        {
          "internalType": "bytes",
          "name": "data",
          "type": "bytes"
        }
      ],
      "name": "safeTransferFrom",
      "outputs": [],
      "stateMutability": "nonpayable",
      "type": "function"
    },
    {
      "inputs": [
        {
          "internalType": "address",
          "name": "operator",
          "type": "address"
        },
        {
          "internalType": "bool",
          "name": "approved",
          "type": "bool"
        }
      ],
      "name": "setApprovalForAll",
      "outputs": [],
      "stateMutability": "nonpayable",
      "type": "function"
    },
    {
      "inputs": [
        {
          "internalType": "bytes4",
          "name": "interfaceId",
          "type": "bytes4"
        }
      ],
      "name": "supportsInterface",
      "outputs": [
        {
          "internalType": "bool",
          "name": "",
          "type": "bool"
        }
      ],
      "stateMutability": "view",
      "type": "function"
    },
    {
      "inputs": [
        {
          "internalType": "string",
          "name": "svg",
          "type": "string"
        }
      ],
      "name": "svgToImageURI",
      "outputs": [
        {
          "internalType": "string",
          "name": "",
          "type": "string"
        }
      ],
      "stateMutability": "pure",
      "type": "function"
    },
    {
      "inputs": [],
      "name": "symbol",
      "outputs": [
        {
          "internalType": "string",
          "name": "",
          "type": "string"
        }
      ],
      "stateMutability": "view",
      "type": "function"
    },
    {
      "inputs": [
        {
          "internalType": "uint256",
          "name": "tokenId",
          "type": "uint256"
        }
      ],
      "name": "tokenURI",
      "outputs": [
        {
          "internalType": "string",
          "name": "",
          "type": "string"
        }
      ],
      "stateMutability": "view",
      "type": "function"
    },
    {
      "inputs": [
        {
          "internalType": "address",
          "name": "from",
          "type": "address"
        },
        {
          "internalType": "address",
          "name": "to",
          "type": "address"
        },
        {
          "internalType": "uint256",
          "name": "tokenId",
          "type": "uint256"
        }
      ],
      "name": "transferFrom",
      "outputs": [],
      "stateMutability": "nonpayable",
      "type": "function"
    },
    {
      "inputs": [
        {
          "internalType": "address",
          "name": "newOwner",
          "type": "address"
        }
      ],
      "name": "transferOwnership",
      "outputs": [],
      "stateMutability": "nonpayable",
      "type": "function"
    }
  ],
  "bytecode": "0x60a06040523480156200001157600080fd5b5060405162003e0f38038062003e0f833981810160405281019062000037919062000743565b6040518060400160405280600f81526020017f44796e616d696320535647204e465400000000000000000000000000000000008152506040518060400160405280600381526020017f44534e00000000000000000000000000000000000000000000000000000000008152508160009080519060200190620000bb92919062000491565b508060019080519060200190620000d492919062000491565b505050620000f7620000eb6200019160201b60201c565b6200019960201b60201c565b60006007819055508273ffffffffffffffffffffffffffffffffffffffff1660808173ffffffffffffffffffffffffffffffffffffffff1660601b8152505062000147826200025f60201b60201c565b600890805190602001906200015e92919062000491565b5062000170816200025f60201b60201c565b600990805190602001906200018792919062000491565b5050505062000a2e565b600033905090565b6000600660009054906101000a900473ffffffffffffffffffffffffffffffffffffffff16905081600660006101000a81548173ffffffffffffffffffffffffffffffffffffffff021916908373ffffffffffffffffffffffffffffffffffffffff1602179055508173ffffffffffffffffffffffffffffffffffffffff168173ffffffffffffffffffffffffffffffffffffffff167f8be0079c531659141344cd1fd0a4f28419497f9722a3daafe3b4186f6b6457e060405160405180910390a35050565b606060006040518060400160405280601a81526020017f646174613a696d6167652f7376672b786d6c3b6261736536342c00000000000081525090506000620002d484604051602001620002b491906200082a565b6040516020818303038152906040526200030360201b620010091760201c565b90508181604051602001620002eb92919062000843565b60405160208183030381529060405292505050919050565b606060008251141562000328576040518060200160405280600081525090506200048c565b600060405180606001604052806040815260200162003dcf60409139905060006003600285516200035a9190620008a4565b62000366919062000930565b600462000374919062000968565b90506000602082620003879190620008a4565b67ffffffffffffffff811115620003a357620003a2620005d5565b5b6040519080825280601f01601f191660200182016040528015620003d65781602001600182028036833780820191505090505b509050818152600183018586518101602084015b8183101562000447576003830192508251603f8160121c168501518253600182019150603f81600c1c168501518253600182019150603f8160061c168501518253600182019150603f8116850151825360018201915050620003ea565b600389510660018114620004645760028114620004755762000480565b613d3d60f01b600283035262000480565b603d60f81b60018303525b50505050508093505050505b919050565b8280546200049f90620009f8565b90600052602060002090601f016020900481019282620004c357600085556200050f565b82601f10620004de57805160ff19168380011785556200050f565b828001600101855582156200050f579182015b828111156200050e578251825591602001919060010190620004f1565b5b5090506200051e919062000522565b5090565b5b808211156200053d57600081600090555060010162000523565b5090565b6000604051905090565b600080fd5b600080fd5b600073ffffffffffffffffffffffffffffffffffffffff82169050919050565b6000620005828262000555565b9050919050565b620005948162000575565b8114620005a057600080fd5b50565b600081519050620005b48162000589565b92915050565b600080fd5b600080fd5b6000601f19601f8301169050919050565b7f4e487b7100000000000000000000000000000000000000000000000000000000600052604160045260246000fd5b6200060f82620005c4565b810181811067ffffffffffffffff82111715620006315762000630620005d5565b5b80604052505050565b60006200064662000541565b905062000654828262000604565b919050565b600067ffffffffffffffff821115620006775762000676620005d5565b5b6200068282620005c4565b9050602081019050919050565b60005b83811015620006af57808201518184015260208101905062000692565b83811115620006bf576000848401525b50505050565b6000620006dc620006d68462000659565b6200063a565b905082815260208101848484011115620006fb57620006fa620005bf565b5b620007088482856200068f565b509392505050565b600082601f830112620007285762000727620005ba565b5b81516200073a848260208601620006c5565b91505092915050565b6000806000606084860312156200075f576200075e6200054b565b5b60006200076f86828701620005a3565b935050602084015167ffffffffffffffff81111562000793576200079262000550565b5b620007a18682870162000710565b925050604084015167ffffffffffffffff811115620007c557620007c462000550565b5b620007d38682870162000710565b9150509250925092565b600081519050919050565b600081905092915050565b60006200080082620007dd565b6200080c8185620007e8565b93506200081e8185602086016200068f565b80840191505092915050565b6000620008388284620007f3565b915081905092915050565b6000620008518285620007f3565b91506200085f8284620007f3565b91508190509392505050565b6000819050919050565b7f4e487b7100000000000000000000000000000000000000000000000000000000600052601160045260246000fd5b6000620008b1826200086b565b9150620008be836200086b565b9250827fffffffffffffffffffffffffffffffffffffffffffffffffffffffffffffffff03821115620008f657620008f562000875565b5b828201905092915050565b7f4e487b7100000000000000000000000000000000000000000000000000000000600052601260045260246000fd5b60006200093d826200086b565b91506200094a836200086b565b9250826200095d576200095c62000901565b5b828204905092915050565b600062000975826200086b565b915062000982836200086b565b9250817fffffffffffffffffffffffffffffffffffffffffffffffffffffffffffffffff0483118215151615620009be57620009bd62000875565b5b828202905092915050565b7f4e487b7100000000000000000000000000000000000000000000000000000000600052602260045260246000fd5b6000600282049050600182168062000a1157607f821691505b6020821081141562000a285762000a27620009c9565b5b50919050565b60805160601c61337b62000a5460003960008181610b430152610c24015261337b6000f3fe608060405234801561001057600080fd5b50600436106101425760003560e01c8063715018a6116100b8578063a22cb4651161007c578063a22cb46514610365578063b88d4fde14610381578063c87b56dd1461039d578063e985e9c5146103cd578063ed28a122146103fd578063f2fde38b1461041b57610142565b8063715018a6146102e357806376f6056b146102ed5780638da5cb5b1461030b57806395d89b41146103295780639e87a5cd1461034757610142565b806323b872dd1161010a57806323b872dd146101fd57806330d871c61461021957806342842e0e146102495780636352211e146102655780636e02007d1461029557806370a08231146102b357610142565b806301ffc9a71461014757806306fdde0314610177578063081812fc14610195578063095ea7b3146101c55780631e930812146101e1575b600080fd5b610161600480360381019061015c9190611f18565b610437565b60405161016e9190611f60565b60405180910390f35b61017f610519565b60405161018c9190612014565b60405180910390f35b6101af60048036038101906101aa919061206c565b6105ab565b6040516101bc91906120da565b60405180910390f35b6101df60048036038101906101da9190612121565b6105f1565b005b6101fb60048036038101906101f69190612197565b610709565b005b610217600480360381019061021291906121c4565b610781565b005b610233600480360381019061022e919061234c565b6107e1565b6040516102409190612014565b60405180910390f35b610263600480360381019061025e91906121c4565b610874565b005b61027f600480360381019061027a919061206c565b610894565b60405161028c91906120da565b60405180910390f35b61029d61091b565b6040516102aa91906123a4565b60405180910390f35b6102cd60048036038101906102c891906123bf565b610925565b6040516102da91906123a4565b60405180910390f35b6102eb6109dd565b005b6102f56109f1565b6040516103029190612014565b60405180910390f35b610313610a83565b60405161032091906120da565b60405180910390f35b610331610aad565b60405161033e9190612014565b60405180910390f35b61034f610b3f565b60405161035c919061244b565b60405180910390f35b61037f600480360381019061037a9190612492565b610b67565b005b61039b60048036038101906103969190612573565b610b7d565b005b6103b760048036038101906103b2919061206c565b610bdf565b6040516103c49190612014565b60405180910390f35b6103e760048036038101906103e291906125f6565b610e5f565b6040516103f49190611f60565b60405180910390f35b610405610ef3565b6040516104129190612014565b60405180910390f35b610435600480360381019061043091906123bf565b610f85565b005b60007f80ac58cd000000000000000000000000000000000000000000000000000000007bffffffffffffffffffffffffffffffffffffffffffffffffffffffff1916827bffffffffffffffffffffffffffffffffffffffffffffffffffffffff1916148061050257507f5b5e139f000000000000000000000000000000000000000000000000000000007bffffffffffffffffffffffffffffffffffffffffffffffffffffffff1916827bffffffffffffffffffffffffffffffffffffffffffffffffffffffff1916145b80610512575061051182611182565b5b9050919050565b60606000805461052890612665565b80601f016020809104026020016040519081016040528092919081815260200182805461055490612665565b80156105a15780601f10610576576101008083540402835291602001916105a1565b820191906000526020600020905b81548152906001019060200180831161058457829003601f168201915b5050505050905090565b60006105b6826111ec565b6004600083815260200190815260200160002060009054906101000a900473ffffffffffffffffffffffffffffffffffffffff169050919050565b60006105fc82610894565b90508073ffffffffffffffffffffffffffffffffffffffff168373ffffffffffffffffffffffffffffffffffffffff16141561066d576040517f08c379a000000000000000000000000000000000000000000000000000000000815260040161066490612709565b60405180910390fd5b8073ffffffffffffffffffffffffffffffffffffffff1661068c611237565b73ffffffffffffffffffffffffffffffffffffffff1614806106bb57506106ba816106b5611237565b610e5f565b5b6106fa576040517f08c379a00000000000000000000000000000000000000000000000000000000081526004016106f19061279b565b60405180910390fd5b610704838361123f565b505050565b80600a600060075481526020019081526020016000208190555061072f336007546112f8565b600160075461073e91906127ea565b6007819055506007547f882d3b5a729a8bb95cf6c0083c99b42ecd9637123d4425bd7b768877fd8af8b082604051610776919061284f565b60405180910390a250565b61079261078c611237565b82611316565b6107d1576040517f08c379a00000000000000000000000000000000000000000000000000000000081526004016107c8906128dc565b60405180910390fd5b6107dc8383836113ab565b505050565b606060006040518060400160405280601a81526020017f646174613a696d6167652f7376672b786d6c3b6261736536342c00000000000081525090506000610847846040516020016108339190612938565b604051602081830303815290604052611009565b9050818160405160200161085c92919061294f565b60405160208183030381529060405292505050919050565b61088f83838360405180602001604052806000815250610b7d565b505050565b6000806108a0836116a5565b9050600073ffffffffffffffffffffffffffffffffffffffff168173ffffffffffffffffffffffffffffffffffffffff161415610912576040517f08c379a0000000000000000000000000000000000000000000000000000000008152600401610909906129bf565b60405180910390fd5b80915050919050565b6000600754905090565b60008073ffffffffffffffffffffffffffffffffffffffff168273ffffffffffffffffffffffffffffffffffffffff161415610996576040517f08c379a000000000000000000000000000000000000000000000000000000000815260040161098d90612a51565b60405180910390fd5b600360008373ffffffffffffffffffffffffffffffffffffffff1673ffffffffffffffffffffffffffffffffffffffff168152602001908152602001600020549050919050565b6109e56116e2565b6109ef6000611760565b565b606060098054610a0090612665565b80601f0160208091040260200160405190810160405280929190818152602001828054610a2c90612665565b8015610a795780601f10610a4e57610100808354040283529160200191610a79565b820191906000526020600020905b815481529060010190602001808311610a5c57829003601f168201915b5050505050905090565b6000600660009054906101000a900473ffffffffffffffffffffffffffffffffffffffff16905090565b606060018054610abc90612665565b80601f0160208091040260200160405190810160405280929190818152602001828054610ae890612665565b8015610b355780601f10610b0a57610100808354040283529160200191610b35565b820191906000526020600020905b815481529060010190602001808311610b1857829003601f168201915b5050505050905090565b60007f0000000000000000000000000000000000000000000000000000000000000000905090565b610b79610b72611237565b8383611826565b5050565b610b8e610b88611237565b83611316565b610bcd576040517f08c379a0000000000000000000000000000000000000000000000000000000008152600401610bc4906128dc565b60405180910390fd5b610bd984848484611993565b50505050565b6060610bea826119ef565b610c20576040517f6df5edae00000000000000000000000000000000000000000000000000000000815260040160405180910390fd5b60007f000000000000000000000000000000000000000000000000000000000000000073ffffffffffffffffffffffffffffffffffffffff1663feaf968c6040518163ffffffff1660e01b815260040160a06040518083038186803b158015610c8857600080fd5b505afa158015610c9c573d6000803e3d6000fd5b505050506040513d601f19601f82011682018060405250810190610cc09190612add565b505050915050600060088054610cd590612665565b80601f0160208091040260200160405190810160405280929190818152602001828054610d0190612665565b8015610d4e5780601f10610d2357610100808354040283529160200191610d4e565b820191906000526020600020905b815481529060010190602001808311610d3157829003601f168201915b50505050509050600a6000858152602001908152602001600020548212610dfd5760098054610d7c90612665565b80601f0160208091040260200160405190810160405280929190818152602001828054610da890612665565b8015610df55780601f10610dca57610100808354040283529160200191610df5565b820191906000526020600020905b815481529060010190602001808311610dd857829003601f168201915b505050505090505b610e05611a30565b610e36610e10610519565b83604051602001610e22929190612d20565b604051602081830303815290604052611009565b604051602001610e4792919061294f565b60405160208183030381529060405292505050919050565b6000600560008473ffffffffffffffffffffffffffffffffffffffff1673ffffffffffffffffffffffffffffffffffffffff16815260200190815260200160002060008373ffffffffffffffffffffffffffffffffffffffff1673ffffffffffffffffffffffffffffffffffffffff16815260200190815260200160002060009054906101000a900460ff16905092915050565b606060088054610f0290612665565b80601f0160208091040260200160405190810160405280929190818152602001828054610f2e90612665565b8015610f7b5780601f10610f5057610100808354040283529160200191610f7b565b820191906000526020600020905b815481529060010190602001808311610f5e57829003601f168201915b5050505050905090565b610f8d6116e2565b600073ffffffffffffffffffffffffffffffffffffffff168173ffffffffffffffffffffffffffffffffffffffff161415610ffd576040517f08c379a0000000000000000000000000000000000000000000000000000000008152600401610ff490612de2565b60405180910390fd5b61100681611760565b50565b606060008251141561102c5760405180602001604052806000815250905061117d565b6000604051806060016040528060408152602001613306604091399050600060036002855161105b91906127ea565b6110659190612e31565b60046110719190612e62565b9050600060208261108291906127ea565b67ffffffffffffffff81111561109b5761109a612221565b5b6040519080825280601f01601f1916602001820160405280156110cd5781602001600182028036833780820191505090505b509050818152600183018586518101602084015b8183101561113c576003830192508251603f8160121c168501518253600182019150603f81600c1c168501518253600182019150603f8160061c168501518253600182019150603f81168501518253600182019150506110e1565b600389510660018114611156576002811461116657611171565b613d3d60f01b6002830352611171565b603d60f81b60018303525b50505050508093505050505b919050565b60007f01ffc9a7000000000000000000000000000000000000000000000000000000007bffffffffffffffffffffffffffffffffffffffffffffffffffffffff1916827bffffffffffffffffffffffffffffffffffffffffffffffffffffffff1916149050919050565b6111f5816119ef565b611234576040517f08c379a000000000000000000000000000000000000000000000000000000000815260040161122b906129bf565b60405180910390fd5b50565b600033905090565b816004600083815260200190815260200160002060006101000a81548173ffffffffffffffffffffffffffffffffffffffff021916908373ffffffffffffffffffffffffffffffffffffffff160217905550808273ffffffffffffffffffffffffffffffffffffffff166112b283610894565b73ffffffffffffffffffffffffffffffffffffffff167f8c5be1e5ebec7d5bd14f71427d1e84f3dd0314c0f7b2291e5b200ac8c7c3b92560405160405180910390a45050565b611312828260405180602001604052806000815250611a6d565b5050565b60008061132283610894565b90508073ffffffffffffffffffffffffffffffffffffffff168473ffffffffffffffffffffffffffffffffffffffff16148061136457506113638185610e5f565b5b806113a257508373ffffffffffffffffffffffffffffffffffffffff1661138a846105ab565b73ffffffffffffffffffffffffffffffffffffffff16145b91505092915050565b8273ffffffffffffffffffffffffffffffffffffffff166113cb82610894565b73ffffffffffffffffffffffffffffffffffffffff1614611421576040517f08c379a000000000000000000000000000000000000000000000000000000000815260040161141890612f2e565b60405180910390fd5b600073ffffffffffffffffffffffffffffffffffffffff168273ffffffffffffffffffffffffffffffffffffffff161415611491576040517f08c379a000000000000000000000000000000000000000000000000000000000815260040161148890612fc0565b60405180910390fd5b61149e8383836001611ac8565b8273ffffffffffffffffffffffffffffffffffffffff166114be82610894565b73ffffffffffffffffffffffffffffffffffffffff1614611514576040517f08c379a000000000000000000000000000000000000000000000000000000000815260040161150b90612f2e565b60405180910390fd5b6004600082815260200190815260200160002060006101000a81549073ffffffffffffffffffffffffffffffffffffffff02191690556001600360008573ffffffffffffffffffffffffffffffffffffffff1673ffffffffffffffffffffffffffffffffffffffff168152602001908152602001600020600082825403925050819055506001600360008473ffffffffffffffffffffffffffffffffffffffff1673ffffffffffffffffffffffffffffffffffffffff16815260200190815260200160002060008282540192505081905550816002600083815260200190815260200160002060006101000a81548173ffffffffffffffffffffffffffffffffffffffff021916908373ffffffffffffffffffffffffffffffffffffffff160217905550808273ffffffffffffffffffffffffffffffffffffffff168473ffffffffffffffffffffffffffffffffffffffff167fddf252ad1be2c89b69c2b068fc378daa952ba7f163c4a11628f55a4df523b3ef60405160405180910390a46116a08383836001611ace565b505050565b60006002600083815260200190815260200160002060009054906101000a900473ffffffffffffffffffffffffffffffffffffffff169050919050565b6116ea611237565b73ffffffffffffffffffffffffffffffffffffffff16611708610a83565b73ffffffffffffffffffffffffffffffffffffffff161461175e576040517f08c379a00000000000000000000000000000000000000000000000000000000081526004016117559061302c565b60405180910390fd5b565b6000600660009054906101000a900473ffffffffffffffffffffffffffffffffffffffff16905081600660006101000a81548173ffffffffffffffffffffffffffffffffffffffff021916908373ffffffffffffffffffffffffffffffffffffffff1602179055508173ffffffffffffffffffffffffffffffffffffffff168173ffffffffffffffffffffffffffffffffffffffff167f8be0079c531659141344cd1fd0a4f28419497f9722a3daafe3b4186f6b6457e060405160405180910390a35050565b8173ffffffffffffffffffffffffffffffffffffffff168373ffffffffffffffffffffffffffffffffffffffff161415611895576040517f08c379a000000000000000000000000000000000000000000000000000000000815260040161188c90613098565b60405180910390fd5b80600560008573ffffffffffffffffffffffffffffffffffffffff1673ffffffffffffffffffffffffffffffffffffffff16815260200190815260200160002060008473ffffffffffffffffffffffffffffffffffffffff1673ffffffffffffffffffffffffffffffffffffffff16815260200190815260200160002060006101000a81548160ff0219169083151502179055508173ffffffffffffffffffffffffffffffffffffffff168373ffffffffffffffffffffffffffffffffffffffff167f17307eab39ab6107e8899845ad3d59bd9653f200f220920489ca2b5937696c31836040516119869190611f60565b60405180910390a3505050565b61199e8484846113ab565b6119aa84848484611ad4565b6119e9576040517f08c379a00000000000000000000000000000000000000000000000000000000081526004016119e09061312a565b60405180910390fd5b50505050565b60008073ffffffffffffffffffffffffffffffffffffffff16611a11836116a5565b73ffffffffffffffffffffffffffffffffffffffff1614159050919050565b60606040518060400160405280601d81526020017f646174613a6170706c69636174696f6e2f6a736f6e3b6261736536342c000000815250905090565b611a778383611c6b565b611a846000848484611ad4565b611ac3576040517f08c379a0000000000000000000000000000000000000000000000000000000008152600401611aba9061312a565b60405180910390fd5b505050565b50505050565b50505050565b6000611af58473ffffffffffffffffffffffffffffffffffffffff16611e89565b15611c5e578373ffffffffffffffffffffffffffffffffffffffff1663150b7a02611b1e611237565b8786866040518563ffffffff1660e01b8152600401611b40949392919061319f565b602060405180830381600087803b158015611b5a57600080fd5b505af1925050508015611b8b57506040513d601f19601f82011682018060405250810190611b889190613200565b60015b611c0e573d8060008114611bbb576040519150601f19603f3d011682016040523d82523d6000602084013e611bc0565b606091505b50600081511415611c06576040517f08c379a0000000000000000000000000000000000000000000000000000000008152600401611bfd9061312a565b60405180910390fd5b805181602001fd5b63150b7a0260e01b7bffffffffffffffffffffffffffffffffffffffffffffffffffffffff1916817bffffffffffffffffffffffffffffffffffffffffffffffffffffffff191614915050611c63565b600190505b949350505050565b600073ffffffffffffffffffffffffffffffffffffffff168273ffffffffffffffffffffffffffffffffffffffff161415611cdb576040517f08c379a0000000000000000000000000000000000000000000000000000000008152600401611cd290613279565b60405180910390fd5b611ce4816119ef565b15611d24576040517f08c379a0000000000000000000000000000000000000000000000000000000008152600401611d1b906132e5565b60405180910390fd5b611d32600083836001611ac8565b611d3b816119ef565b15611d7b576040517f08c379a0000000000000000000000000000000000000000000000000000000008152600401611d72906132e5565b60405180910390fd5b6001600360008473ffffffffffffffffffffffffffffffffffffffff1673ffffffffffffffffffffffffffffffffffffffff16815260200190815260200160002060008282540192505081905550816002600083815260200190815260200160002060006101000a81548173ffffffffffffffffffffffffffffffffffffffff021916908373ffffffffffffffffffffffffffffffffffffffff160217905550808273ffffffffffffffffffffffffffffffffffffffff16600073ffffffffffffffffffffffffffffffffffffffff167fddf252ad1be2c89b69c2b068fc378daa952ba7f163c4a11628f55a4df523b3ef60405160405180910390a4611e85600083836001611ace565b5050565b6000808273ffffffffffffffffffffffffffffffffffffffff163b119050919050565b6000604051905090565b600080fd5b600080fd5b60007fffffffff0000000000000000000000000000000000000000000000000000000082169050919050565b611ef581611ec0565b8114611f0057600080fd5b50565b600081359050611f1281611eec565b92915050565b600060208284031215611f2e57611f2d611eb6565b5b6000611f3c84828501611f03565b91505092915050565b60008115159050919050565b611f5a81611f45565b82525050565b6000602082019050611f756000830184611f51565b92915050565b600081519050919050565b600082825260208201905092915050565b60005b83811015611fb5578082015181840152602081019050611f9a565b83811115611fc4576000848401525b50505050565b6000601f19601f8301169050919050565b6000611fe682611f7b565b611ff08185611f86565b9350612000818560208601611f97565b61200981611fca565b840191505092915050565b6000602082019050818103600083015261202e8184611fdb565b905092915050565b6000819050919050565b61204981612036565b811461205457600080fd5b50565b60008135905061206681612040565b92915050565b60006020828403121561208257612081611eb6565b5b600061209084828501612057565b91505092915050565b600073ffffffffffffffffffffffffffffffffffffffff82169050919050565b60006120c482612099565b9050919050565b6120d4816120b9565b82525050565b60006020820190506120ef60008301846120cb565b92915050565b6120fe816120b9565b811461210957600080fd5b50565b60008135905061211b816120f5565b92915050565b6000806040838503121561213857612137611eb6565b5b60006121468582860161210c565b925050602061215785828601612057565b9150509250929050565b6000819050919050565b61217481612161565b811461217f57600080fd5b50565b6000813590506121918161216b565b92915050565b6000602082840312156121ad576121ac611eb6565b5b60006121bb84828501612182565b91505092915050565b6000806000606084860312156121dd576121dc611eb6565b5b60006121eb8682870161210c565b93505060206121fc8682870161210c565b925050604061220d86828701612057565b9150509250925092565b600080fd5b600080fd5b7f4e487b7100000000000000000000000000000000000000000000000000000000600052604160045260246000fd5b61225982611fca565b810181811067ffffffffffffffff8211171561227857612277612221565b5b80604052505050565b600061228b611eac565b90506122978282612250565b919050565b600067ffffffffffffffff8211156122b7576122b6612221565b5b6122c082611fca565b9050602081019050919050565b82818337600083830152505050565b60006122ef6122ea8461229c565b612281565b90508281526020810184848401111561230b5761230a61221c565b5b6123168482856122cd565b509392505050565b600082601f83011261233357612332612217565b5b81356123438482602086016122dc565b91505092915050565b60006020828403121561236257612361611eb6565b5b600082013567ffffffffffffffff8111156123805761237f611ebb565b5b61238c8482850161231e565b91505092915050565b61239e81612036565b82525050565b60006020820190506123b96000830184612395565b92915050565b6000602082840312156123d5576123d4611eb6565b5b60006123e38482850161210c565b91505092915050565b6000819050919050565b600061241161240c61240784612099565b6123ec565b612099565b9050919050565b6000612423826123f6565b9050919050565b600061243582612418565b9050919050565b6124458161242a565b82525050565b6000602082019050612460600083018461243c565b92915050565b61246f81611f45565b811461247a57600080fd5b50565b60008135905061248c81612466565b92915050565b600080604083850312156124a9576124a8611eb6565b5b60006124b78582860161210c565b92505060206124c88582860161247d565b9150509250929050565b600067ffffffffffffffff8211156124ed576124ec612221565b5b6124f682611fca565b9050602081019050919050565b6000612516612511846124d2565b612281565b9050828152602081018484840111156125325761253161221c565b5b61253d8482856122cd565b509392505050565b600082601f83011261255a57612559612217565b5b813561256a848260208601612503565b91505092915050565b6000806000806080858703121561258d5761258c611eb6565b5b600061259b8782880161210c565b94505060206125ac8782880161210c565b93505060406125bd87828801612057565b925050606085013567ffffffffffffffff8111156125de576125dd611ebb565b5b6125ea87828801612545565b91505092959194509250565b6000806040838503121561260d5761260c611eb6565b5b600061261b8582860161210c565b925050602061262c8582860161210c565b9150509250929050565b7f4e487b7100000000000000000000000000000000000000000000000000000000600052602260045260246000fd5b6000600282049050600182168061267d57607f821691505b6020821081141561269157612690612636565b5b50919050565b7f4552433732313a20617070726f76616c20746f2063757272656e74206f776e6560008201527f7200000000000000000000000000000000000000000000000000000000000000602082015250565b60006126f3602183611f86565b91506126fe82612697565b604082019050919050565b60006020820190508181036000830152612722816126e6565b9050919050565b7f4552433732313a20617070726f76652063616c6c6572206973206e6f7420746f60008201527f6b656e206f776e6572206f7220617070726f76656420666f7220616c6c000000602082015250565b6000612785603d83611f86565b915061279082612729565b604082019050919050565b600060208201905081810360008301526127b481612778565b9050919050565b7f4e487b7100000000000000000000000000000000000000000000000000000000600052601160045260246000fd5b60006127f582612036565b915061280083612036565b9250827fffffffffffffffffffffffffffffffffffffffffffffffffffffffffffffffff03821115612835576128346127bb565b5b828201905092915050565b61284981612161565b82525050565b60006020820190506128646000830184612840565b92915050565b7f4552433732313a2063616c6c6572206973206e6f7420746f6b656e206f776e6560008201527f72206f7220617070726f76656400000000000000000000000000000000000000602082015250565b60006128c6602d83611f86565b91506128d18261286a565b604082019050919050565b600060208201905081810360008301526128f5816128b9565b9050919050565b600081905092915050565b600061291282611f7b565b61291c81856128fc565b935061292c818560208601611f97565b80840191505092915050565b60006129448284612907565b915081905092915050565b600061295b8285612907565b91506129678284612907565b91508190509392505050565b7f4552433732313a20696e76616c696420746f6b656e2049440000000000000000600082015250565b60006129a9601883611f86565b91506129b482612973565b602082019050919050565b600060208201905081810360008301526129d88161299c565b9050919050565b7f4552433732313a2061646472657373207a65726f206973206e6f74206120766160008201527f6c6964206f776e65720000000000000000000000000000000000000000000000602082015250565b6000612a3b602983611f86565b9150612a46826129df565b604082019050919050565b60006020820190508181036000830152612a6a81612a2e565b9050919050565b600069ffffffffffffffffffff82169050919050565b612a9081612a71565b8114612a9b57600080fd5b50565b600081519050612aad81612a87565b92915050565b600081519050612ac28161216b565b92915050565b600081519050612ad781612040565b92915050565b600080600080600060a08688031215612af957612af8611eb6565b5b6000612b0788828901612a9e565b9550506020612b1888828901612ab3565b9450506040612b2988828901612ac8565b9350506060612b3a88828901612ac8565b9250506080612b4b88828901612a9e565b9150509295509295909350565b7f7b226e616d65223a220000000000000000000000000000000000000000000000600082015250565b6000612b8e6009836128fc565b9150612b9982612b58565b600982019050919050565b7f222c20226465736372697074696f6e223a22416e204e4654207468617420636860008201527f616e676573206261736564206f6e2074686520436861696e6c696e6b2046656560208201527f64222c2000000000000000000000000000000000000000000000000000000000604082015250565b6000612c266044836128fc565b9150612c3182612ba4565b604482019050919050565b7f2261747472696275746573223a205b7b2274726169745f74797065223a20226360008201527f6f6f6c6e657373222c202276616c7565223a203130307d5d2c2022696d61676560208201527f223a220000000000000000000000000000000000000000000000000000000000604082015250565b6000612cbe6043836128fc565b9150612cc982612c3c565b604382019050919050565b7f227d000000000000000000000000000000000000000000000000000000000000600082015250565b6000612d0a6002836128fc565b9150612d1582612cd4565b600282019050919050565b6000612d2b82612b81565b9150612d378285612907565b9150612d4282612c19565b9150612d4d82612cb1565b9150612d598284612907565b9150612d6482612cfd565b91508190509392505050565b7f4f776e61626c653a206e6577206f776e657220697320746865207a65726f206160008201527f6464726573730000000000000000000000000000000000000000000000000000602082015250565b6000612dcc602683611f86565b9150612dd782612d70565b604082019050919050565b60006020820190508181036000830152612dfb81612dbf565b9050919050565b7f4e487b7100000000000000000000000000000000000000000000000000000000600052601260045260246000fd5b6000612e3c82612036565b9150612e4783612036565b925082612e5757612e56612e02565b5b828204905092915050565b6000612e6d82612036565b9150612e7883612036565b9250817fffffffffffffffffffffffffffffffffffffffffffffffffffffffffffffffff0483118215151615612eb157612eb06127bb565b5b828202905092915050565b7f4552433732313a207472616e736665722066726f6d20696e636f72726563742060008201527f6f776e6572000000000000000000000000000000000000000000000000000000602082015250565b6000612f18602583611f86565b9150612f2382612ebc565b604082019050919050565b60006020820190508181036000830152612f4781612f0b565b9050919050565b7f4552433732313a207472616e7366657220746f20746865207a65726f2061646460008201527f7265737300000000000000000000000000000000000000000000000000000000602082015250565b6000612faa602483611f86565b9150612fb582612f4e565b604082019050919050565b60006020820190508181036000830152612fd981612f9d565b9050919050565b7f4f776e61626c653a2063616c6c6572206973206e6f7420746865206f776e6572600082015250565b6000613016602083611f86565b915061302182612fe0565b602082019050919050565b6000602082019050818103600083015261304581613009565b9050919050565b7f4552433732313a20617070726f766520746f2063616c6c657200000000000000600082015250565b6000613082601983611f86565b915061308d8261304c565b602082019050919050565b600060208201905081810360008301526130b181613075565b9050919050565b7f4552433732313a207472616e7366657220746f206e6f6e20455243373231526560008201527f63656976657220696d706c656d656e7465720000000000000000000000000000602082015250565b6000613114603283611f86565b915061311f826130b8565b604082019050919050565b6000602082019050818103600083015261314381613107565b9050919050565b600081519050919050565b600082825260208201905092915050565b60006131718261314a565b61317b8185613155565b935061318b818560208601611f97565b61319481611fca565b840191505092915050565b60006080820190506131b460008301876120cb565b6131c160208301866120cb565b6131ce6040830185612395565b81810360608301526131e08184613166565b905095945050505050565b6000815190506131fa81611eec565b92915050565b60006020828403121561321657613215611eb6565b5b6000613224848285016131eb565b91505092915050565b7f4552433732313a206d696e7420746f20746865207a65726f2061646472657373600082015250565b6000613263602083611f86565b915061326e8261322d565b602082019050919050565b6000602082019050818103600083015261329281613256565b9050919050565b7f4552433732313a20746f6b656e20616c7265616479206d696e74656400000000600082015250565b60006132cf601c83611f86565b91506132da82613299565b602082019050919050565b600060208201905081810360008301526132fe816132c2565b905091905056fe4142434445464748494a4b4c4d4e4f505152535455565758595a6162636465666768696a6b6c6d6e6f707172737475767778797a303132333435363738392b2fa2646970667358221220ad67d2c5988d2c93707f4a2dc4b21b79521753f82fb4099d235c8e1970ead92264736f6c634300080800334142434445464748494a4b4c4d4e4f505152535455565758595a6162636465666768696a6b6c6d6e6f707172737475767778797a303132333435363738392b2f",
  "linkReferences": {},
  "deployedLinkReferences": {}
}